{
  "_format": "hh-sol-artifact-1",
  "contractName": "Web3Mint",
  "sourceName": "contracts/Web3Mint.sol",
  "abi": [
    {
      "inputs": [],
      "stateMutability": "nonpayable",
      "type": "constructor"
    },
    {
      "anonymous": false,
      "inputs": [
        {
          "indexed": true,
          "internalType": "address",
          "name": "owner",
          "type": "address"
        },
        {
          "indexed": true,
          "internalType": "address",
          "name": "approved",
          "type": "address"
        },
        {
          "indexed": true,
          "internalType": "uint256",
          "name": "tokenId",
          "type": "uint256"
        }
      ],
      "name": "Approval",
      "type": "event"
    },
    {
      "anonymous": false,
      "inputs": [
        {
          "indexed": true,
          "internalType": "address",
          "name": "owner",
          "type": "address"
        },
        {
          "indexed": true,
          "internalType": "address",
          "name": "operator",
          "type": "address"
        },
        {
          "indexed": false,
          "internalType": "bool",
          "name": "approved",
          "type": "bool"
        }
      ],
      "name": "ApprovalForAll",
      "type": "event"
    },
    {
      "anonymous": false,
      "inputs": [
        {
          "indexed": true,
          "internalType": "address",
          "name": "from",
          "type": "address"
        },
        {
          "indexed": true,
          "internalType": "address",
          "name": "to",
          "type": "address"
        },
        {
          "indexed": true,
          "internalType": "uint256",
          "name": "tokenId",
          "type": "uint256"
        }
      ],
      "name": "Transfer",
      "type": "event"
    },
    {
      "inputs": [
        {
          "internalType": "address",
          "name": "to",
          "type": "address"
        },
        {
          "internalType": "uint256",
          "name": "tokenId",
          "type": "uint256"
        }
      ],
      "name": "approve",
      "outputs": [],
      "stateMutability": "nonpayable",
      "type": "function"
    },
    {
      "inputs": [
        {
          "internalType": "address",
          "name": "owner",
          "type": "address"
        }
      ],
      "name": "balanceOf",
      "outputs": [
        {
          "internalType": "uint256",
          "name": "",
          "type": "uint256"
        }
      ],
      "stateMutability": "view",
      "type": "function"
    },
    {
      "inputs": [
        {
          "internalType": "uint256",
          "name": "tokenId",
          "type": "uint256"
        }
      ],
      "name": "getApproved",
      "outputs": [
        {
          "internalType": "address",
          "name": "",
          "type": "address"
        }
      ],
      "stateMutability": "view",
      "type": "function"
    },
    {
      "inputs": [
        {
          "internalType": "address",
          "name": "owner",
          "type": "address"
        },
        {
          "internalType": "address",
          "name": "operator",
          "type": "address"
        }
      ],
      "name": "isApprovedForAll",
      "outputs": [
        {
          "internalType": "bool",
          "name": "",
          "type": "bool"
        }
      ],
      "stateMutability": "view",
      "type": "function"
    },
    {
      "inputs": [
        {
          "internalType": "string",
          "name": "name",
          "type": "string"
        },
        {
          "internalType": "string",
          "name": "imageURI",
          "type": "string"
        }
      ],
      "name": "mintIpfsNFT",
      "outputs": [],
      "stateMutability": "nonpayable",
      "type": "function"
    },
    {
      "inputs": [],
      "name": "name",
      "outputs": [
        {
          "internalType": "string",
          "name": "",
          "type": "string"
        }
      ],
      "stateMutability": "view",
      "type": "function"
    },
    {
      "inputs": [
        {
          "internalType": "uint256",
          "name": "tokenId",
          "type": "uint256"
        }
      ],
      "name": "ownerOf",
      "outputs": [
        {
          "internalType": "address",
          "name": "",
          "type": "address"
        }
      ],
      "stateMutability": "view",
      "type": "function"
    },
    {
      "inputs": [
        {
          "internalType": "address",
          "name": "from",
          "type": "address"
        },
        {
          "internalType": "address",
          "name": "to",
          "type": "address"
        },
        {
          "internalType": "uint256",
          "name": "tokenId",
          "type": "uint256"
        }
      ],
      "name": "safeTransferFrom",
      "outputs": [],
      "stateMutability": "nonpayable",
      "type": "function"
    },
    {
      "inputs": [
        {
          "internalType": "address",
          "name": "from",
          "type": "address"
        },
        {
          "internalType": "address",
          "name": "to",
          "type": "address"
        },
        {
          "internalType": "uint256",
          "name": "tokenId",
          "type": "uint256"
        },
        {
          "internalType": "bytes",
          "name": "data",
          "type": "bytes"
        }
      ],
      "name": "safeTransferFrom",
      "outputs": [],
      "stateMutability": "nonpayable",
      "type": "function"
    },
    {
      "inputs": [
        {
          "internalType": "address",
          "name": "operator",
          "type": "address"
        },
        {
          "internalType": "bool",
          "name": "approved",
          "type": "bool"
        }
      ],
      "name": "setApprovalForAll",
      "outputs": [],
      "stateMutability": "nonpayable",
      "type": "function"
    },
    {
      "inputs": [
        {
          "internalType": "bytes4",
          "name": "interfaceId",
          "type": "bytes4"
        }
      ],
      "name": "supportsInterface",
      "outputs": [
        {
          "internalType": "bool",
          "name": "",
          "type": "bool"
        }
      ],
      "stateMutability": "view",
      "type": "function"
    },
    {
      "inputs": [],
      "name": "symbol",
      "outputs": [
        {
          "internalType": "string",
          "name": "",
          "type": "string"
        }
      ],
      "stateMutability": "view",
      "type": "function"
    },
    {
      "inputs": [
        {
          "internalType": "uint256",
          "name": "_tokenId",
          "type": "uint256"
        }
      ],
      "name": "tokenURI",
      "outputs": [
        {
          "internalType": "string",
          "name": "",
          "type": "string"
        }
      ],
      "stateMutability": "view",
      "type": "function"
    },
    {
      "inputs": [
        {
          "internalType": "address",
          "name": "from",
          "type": "address"
        },
        {
          "internalType": "address",
          "name": "to",
          "type": "address"
        },
        {
          "internalType": "uint256",
          "name": "tokenId",
          "type": "uint256"
        }
      ],
      "name": "transferFrom",
      "outputs": [],
      "stateMutability": "nonpayable",
      "type": "function"
    }
  ],
  "bytecode": "0x60806040523480156200001157600080fd5b506040518060400160405280600a81526020017f6d617368686172756b69000000000000000000000000000000000000000000008152506040518060400160405280600381526020017f4d53480000000000000000000000000000000000000000000000000000000000815250816000908051906020019062000096929190620001cf565b508060019080519060200190620000af929190620001cf565b505050620000fd6040518060400160405280601881526020017f54686973206973206d79204e465420636f6e74726163742e00000000000000008152506200010360201b62000b0f1760201c565b620003ac565b620001a3816040516024016200011a9190620002c0565b6040516020818303038152906040527f41304fac000000000000000000000000000000000000000000000000000000007bffffffffffffffffffffffffffffffffffffffffffffffffffffffff19166020820180517bffffffffffffffffffffffffffffffffffffffffffffffffffffffff8381831617835250505050620001a660201b60201c565b50565b60008151905060006a636f6e736f6c652e6c6f679050602083016000808483855afa5050505050565b828054620001dd9062000336565b90600052602060002090601f0160209004810192826200020157600085556200024d565b82601f106200021c57805160ff19168380011785556200024d565b828001600101855582156200024d579182015b828111156200024c5782518255916020019190600101906200022f565b5b5090506200025c919062000260565b5090565b5b808211156200027b57600081600090555060010162000261565b5090565b60006200028c82620002e4565b620002988185620002ef565b9350620002aa81856020860162000300565b620002b5816200039b565b840191505092915050565b60006020820190508181036000830152620002dc81846200027f565b905092915050565b600081519050919050565b600082825260208201905092915050565b60005b838110156200032057808201518184015260208101905062000303565b8381111562000330576000848401525b50505050565b600060028204905060018216806200034f57607f821691505b602082108114156200036657620003656200036c565b5b50919050565b7f4e487b7100000000000000000000000000000000000000000000000000000000600052602260045260246000fd5b6000601f19601f8301169050919050565b612e8d80620003bc6000396000f3fe608060405234801561001057600080fd5b50600436106100ea5760003560e01c806370a082311161008c578063b88d4fde11610066578063b88d4fde1461025b578063c87b56dd14610277578063e985e9c5146102a7578063eb00195d146102d7576100ea565b806370a08231146101f157806395d89b4114610221578063a22cb4651461023f576100ea565b8063095ea7b3116100c8578063095ea7b31461016d57806323b872dd1461018957806342842e0e146101a55780636352211e146101c1576100ea565b806301ffc9a7146100ef57806306fdde031461011f578063081812fc1461013d575b600080fd5b61010960048036038101906101049190611e40565b6102f3565b604051610116919061238c565b60405180910390f35b6101276103d5565b60405161013491906123a7565b60405180910390f35b61015760048036038101906101529190611efe565b610467565b6040516101649190612325565b60405180910390f35b61018760048036038101906101829190611e04565b6104ad565b005b6101a3600480360381019061019e9190611cfe565b6105c5565b005b6101bf60048036038101906101ba9190611cfe565b610625565b005b6101db60048036038101906101d69190611efe565b610645565b6040516101e89190612325565b60405180910390f35b61020b60048036038101906102069190611c99565b6106f7565b6040516102189190612567565b60405180910390f35b6102296107af565b60405161023691906123a7565b60405180910390f35b61025960048036038101906102549190611dc8565b610841565b005b61027560048036038101906102709190611d4d565b610857565b005b610291600480360381019061028c9190611efe565b6108b9565b60405161029e91906123a7565b60405180910390f35b6102c160048036038101906102bc9190611cc2565b6109b5565b6040516102ce919061238c565b60405180910390f35b6102f160048036038101906102ec9190611e92565b610a49565b005b60007f80ac58cd000000000000000000000000000000000000000000000000000000007bffffffffffffffffffffffffffffffffffffffffffffffffffffffff1916827bffffffffffffffffffffffffffffffffffffffffffffffffffffffff191614806103be57507f5b5e139f000000000000000000000000000000000000000000000000000000007bffffffffffffffffffffffffffffffffffffffffffffffffffffffff1916827bffffffffffffffffffffffffffffffffffffffffffffffffffffffff1916145b806103ce57506103cd82610ba8565b5b9050919050565b6060600080546103e49061282c565b80601f01602080910402602001604051908101604052809291908181526020018280546104109061282c565b801561045d5780601f106104325761010080835404028352916020019161045d565b820191906000526020600020905b81548152906001019060200180831161044057829003601f168201915b5050505050905090565b600061047282610c12565b6004600083815260200190815260200160002060009054906101000a900473ffffffffffffffffffffffffffffffffffffffff169050919050565b60006104b882610645565b90508073ffffffffffffffffffffffffffffffffffffffff168373ffffffffffffffffffffffffffffffffffffffff161415610529576040517f08c379a000000000000000000000000000000000000000000000000000000000815260040161052090612527565b60405180910390fd5b8073ffffffffffffffffffffffffffffffffffffffff16610548610c5d565b73ffffffffffffffffffffffffffffffffffffffff161480610577575061057681610571610c5d565b6109b5565b5b6105b6576040517f08c379a00000000000000000000000000000000000000000000000000000000081526004016105ad906124c7565b60405180910390fd5b6105c08383610c65565b505050565b6105d66105d0610c5d565b82610d1e565b610615576040517f08c379a000000000000000000000000000000000000000000000000000000000815260040161060c90612547565b60405180910390fd5b610620838383610db3565b505050565b61064083838360405180602001604052806000815250610857565b505050565b6000806002600084815260200190815260200160002060009054906101000a900473ffffffffffffffffffffffffffffffffffffffff169050600073ffffffffffffffffffffffffffffffffffffffff168173ffffffffffffffffffffffffffffffffffffffff1614156106ee576040517f08c379a00000000000000000000000000000000000000000000000000000000081526004016106e590612507565b60405180910390fd5b80915050919050565b60008073ffffffffffffffffffffffffffffffffffffffff168273ffffffffffffffffffffffffffffffffffffffff161415610768576040517f08c379a000000000000000000000000000000000000000000000000000000000815260040161075f906124a7565b60405180910390fd5b600360008373ffffffffffffffffffffffffffffffffffffffff1673ffffffffffffffffffffffffffffffffffffffff168152602001908152602001600020549050919050565b6060600180546107be9061282c565b80601f01602080910402602001604051908101604052809291908181526020018280546107ea9061282c565b80156108375780601f1061080c57610100808354040283529160200191610837565b820191906000526020600020905b81548152906001019060200180831161081a57829003601f168201915b5050505050905090565b61085361084c610c5d565b838361101a565b5050565b610868610862610c5d565b83610d1e565b6108a7576040517f08c379a000000000000000000000000000000000000000000000000000000000815260040161089e90612547565b60405180910390fd5b6108b384848484611187565b50505050565b60606000610985600684815481106108fa577f4e487b7100000000000000000000000000000000000000000000000000000000600052603260045260246000fd5b9060005260206000209060020201600001610914856111e3565b6006868154811061094e577f4e487b7100000000000000000000000000000000000000000000000000000000600052603260045260246000fd5b9060005260206000209060020201600101604051602001610971939291906122a6565b604051602081830303815290604052611390565b905060008160405160200161099a9190612303565b60405160208183030381529060405290508092505050919050565b6000600560008473ffffffffffffffffffffffffffffffffffffffff1673ffffffffffffffffffffffffffffffffffffffff16815260200190815260200160002060008373ffffffffffffffffffffffffffffffffffffffff1673ffffffffffffffffffffffffffffffffffffffff16815260200190815260200160002060009054906101000a900460ff16905092915050565b6000610a55600761154e565b9050610a61338261155c565b600660405180604001604052808581526020018481525090806001815401808255809150506001900390600052602060002090600202016000909190919091506000820151816000019080519060200190610abd929190611abd565b506020820151816001019080519060200190610ada929190611abd565b505050610b00604051806060016040528060258152602001612df360259139823361157a565b610b0a6007611619565b505050565b610ba581604051602401610b2391906123a7565b6040516020818303038152906040527f41304fac000000000000000000000000000000000000000000000000000000007bffffffffffffffffffffffffffffffffffffffffffffffffffffffff19166020820180517bffffffffffffffffffffffffffffffffffffffffffffffffffffffff838183161783525050505061162f565b50565b60007f01ffc9a7000000000000000000000000000000000000000000000000000000007bffffffffffffffffffffffffffffffffffffffffffffffffffffffff1916827bffffffffffffffffffffffffffffffffffffffffffffffffffffffff1916149050919050565b610c1b81611658565b610c5a576040517f08c379a0000000000000000000000000000000000000000000000000000000008152600401610c5190612507565b60405180910390fd5b50565b600033905090565b816004600083815260200190815260200160002060006101000a81548173ffffffffffffffffffffffffffffffffffffffff021916908373ffffffffffffffffffffffffffffffffffffffff160217905550808273ffffffffffffffffffffffffffffffffffffffff16610cd883610645565b73ffffffffffffffffffffffffffffffffffffffff167f8c5be1e5ebec7d5bd14f71427d1e84f3dd0314c0f7b2291e5b200ac8c7c3b92560405160405180910390a45050565b600080610d2a83610645565b90508073ffffffffffffffffffffffffffffffffffffffff168473ffffffffffffffffffffffffffffffffffffffff161480610d6c5750610d6b81856109b5565b5b80610daa57508373ffffffffffffffffffffffffffffffffffffffff16610d9284610467565b73ffffffffffffffffffffffffffffffffffffffff16145b91505092915050565b8273ffffffffffffffffffffffffffffffffffffffff16610dd382610645565b73ffffffffffffffffffffffffffffffffffffffff1614610e29576040517f08c379a0000000000000000000000000000000000000000000000000000000008152600401610e2090612427565b60405180910390fd5b600073ffffffffffffffffffffffffffffffffffffffff168273ffffffffffffffffffffffffffffffffffffffff161415610e99576040517f08c379a0000000000000000000000000000000000000000000000000000000008152600401610e9090612467565b60405180910390fd5b610ea48383836116c4565b610eaf600082610c65565b6001600360008573ffffffffffffffffffffffffffffffffffffffff1673ffffffffffffffffffffffffffffffffffffffff1681526020019081526020016000206000828254610eff9190612742565b925050819055506001600360008473ffffffffffffffffffffffffffffffffffffffff1673ffffffffffffffffffffffffffffffffffffffff1681526020019081526020016000206000828254610f569190612661565b92505081905550816002600083815260200190815260200160002060006101000a81548173ffffffffffffffffffffffffffffffffffffffff021916908373ffffffffffffffffffffffffffffffffffffffff160217905550808273ffffffffffffffffffffffffffffffffffffffff168473ffffffffffffffffffffffffffffffffffffffff167fddf252ad1be2c89b69c2b068fc378daa952ba7f163c4a11628f55a4df523b3ef60405160405180910390a46110158383836116c9565b505050565b8173ffffffffffffffffffffffffffffffffffffffff168373ffffffffffffffffffffffffffffffffffffffff161415611089576040517f08c379a000000000000000000000000000000000000000000000000000000000815260040161108090612487565b60405180910390fd5b80600560008573ffffffffffffffffffffffffffffffffffffffff1673ffffffffffffffffffffffffffffffffffffffff16815260200190815260200160002060008473ffffffffffffffffffffffffffffffffffffffff1673ffffffffffffffffffffffffffffffffffffffff16815260200190815260200160002060006101000a81548160ff0219169083151502179055508173ffffffffffffffffffffffffffffffffffffffff168373ffffffffffffffffffffffffffffffffffffffff167f17307eab39ab6107e8899845ad3d59bd9653f200f220920489ca2b5937696c318360405161117a919061238c565b60405180910390a3505050565b611192848484610db3565b61119e848484846116ce565b6111dd576040517f08c379a00000000000000000000000000000000000000000000000000000000081526004016111d490612407565b60405180910390fd5b50505050565b6060600082141561122b576040518060400160405280600181526020017f3000000000000000000000000000000000000000000000000000000000000000815250905061138b565b600082905060005b6000821461125d5780806112469061288f565b915050600a8261125691906126b7565b9150611233565b60008167ffffffffffffffff81111561129f577f4e487b7100000000000000000000000000000000000000000000000000000000600052604160045260246000fd5b6040519080825280601f01601f1916602001820160405280156112d15781602001600182028036833780820191505090505b5090505b60008514611384576001826112ea9190612742565b9150600a856112f991906128d8565b60306113059190612661565b60f81b818381518110611341577f4e487b7100000000000000000000000000000000000000000000000000000000600052603260045260246000fd5b60200101907effffffffffffffffffffffffffffffffffffffffffffffffffffffffffffff1916908160001a905350600a8561137d91906126b7565b94506112d5565b8093505050505b919050565b606060008251905060008114156113b95760405180602001604052806000815250915050611549565b600060036002836113ca9190612661565b6113d491906126b7565b60046113e091906126e8565b905060006020826113f19190612661565b67ffffffffffffffff811115611430577f4e487b7100000000000000000000000000000000000000000000000000000000600052604160045260246000fd5b6040519080825280601f01601f1916602001820160405280156114625781602001600182028036833780820191505090505b5090506000604051806060016040528060408152602001612e18604091399050600181016020830160005b868110156115065760038101905062ffffff818a015116603f8160121c168401518060081b905060ff603f83600c1c1686015116810190508060081b905060ff603f8360061c1686015116810190508060081b905060ff603f831686015116810190508060e01b9050808452600484019350505061148d565b50600386066001811461152057600281146115305761153b565b613d3d60f01b600283035261153b565b603d60f81b60018303525b508484525050819450505050505b919050565b600081600001549050919050565b611576828260405180602001604052806000815250611865565b5050565b611614838383604051602401611592939291906123c9565b6040516020818303038152906040527fe3849f79000000000000000000000000000000000000000000000000000000007bffffffffffffffffffffffffffffffffffffffffffffffffffffffff19166020820180517bffffffffffffffffffffffffffffffffffffffffffffffffffffffff838183161783525050505061162f565b505050565b6001816000016000828254019250508190555050565b60008151905060006a636f6e736f6c652e6c6f679050602083016000808483855afa5050505050565b60008073ffffffffffffffffffffffffffffffffffffffff166002600084815260200190815260200160002060009054906101000a900473ffffffffffffffffffffffffffffffffffffffff1673ffffffffffffffffffffffffffffffffffffffff1614159050919050565b505050565b505050565b60006116ef8473ffffffffffffffffffffffffffffffffffffffff166118c0565b15611858578373ffffffffffffffffffffffffffffffffffffffff1663150b7a02611718610c5d565b8786866040518563ffffffff1660e01b815260040161173a9493929190612340565b602060405180830381600087803b15801561175457600080fd5b505af192505050801561178557506040513d601f19601f820116820180604052508101906117829190611e69565b60015b611808573d80600081146117b5576040519150601f19603f3d011682016040523d82523d6000602084013e6117ba565b606091505b50600081511415611800576040517f08c379a00000000000000000000000000000000000000000000000000000000081526004016117f790612407565b60405180910390fd5b805181602001fd5b63150b7a0260e01b7bffffffffffffffffffffffffffffffffffffffffffffffffffffffff1916817bffffffffffffffffffffffffffffffffffffffffffffffffffffffff19161491505061185d565b600190505b949350505050565b61186f83836118e3565b61187c60008484846116ce565b6118bb576040517f08c379a00000000000000000000000000000000000000000000000000000000081526004016118b290612407565b60405180910390fd5b505050565b6000808273ffffffffffffffffffffffffffffffffffffffff163b119050919050565b600073ffffffffffffffffffffffffffffffffffffffff168273ffffffffffffffffffffffffffffffffffffffff161415611953576040517f08c379a000000000000000000000000000000000000000000000000000000000815260040161194a906124e7565b60405180910390fd5b61195c81611658565b1561199c576040517f08c379a000000000000000000000000000000000000000000000000000000000815260040161199390612447565b60405180910390fd5b6119a8600083836116c4565b6001600360008473ffffffffffffffffffffffffffffffffffffffff1673ffffffffffffffffffffffffffffffffffffffff16815260200190815260200160002060008282546119f89190612661565b92505081905550816002600083815260200190815260200160002060006101000a81548173ffffffffffffffffffffffffffffffffffffffff021916908373ffffffffffffffffffffffffffffffffffffffff160217905550808273ffffffffffffffffffffffffffffffffffffffff16600073ffffffffffffffffffffffffffffffffffffffff167fddf252ad1be2c89b69c2b068fc378daa952ba7f163c4a11628f55a4df523b3ef60405160405180910390a4611ab9600083836116c9565b5050565b828054611ac99061282c565b90600052602060002090601f016020900481019282611aeb5760008555611b32565b82601f10611b0457805160ff1916838001178555611b32565b82800160010185558215611b32579182015b82811115611b31578251825591602001919060010190611b16565b5b509050611b3f9190611b43565b5090565b5b80821115611b5c576000816000905550600101611b44565b5090565b6000611b73611b6e846125a7565b612582565b905082815260208101848484011115611b8b57600080fd5b611b968482856127ea565b509392505050565b6000611bb1611bac846125d8565b612582565b905082815260208101848484011115611bc957600080fd5b611bd48482856127ea565b509392505050565b600081359050611beb81612d96565b92915050565b600081359050611c0081612dad565b92915050565b600081359050611c1581612dc4565b92915050565b600081519050611c2a81612dc4565b92915050565b600082601f830112611c4157600080fd5b8135611c51848260208601611b60565b91505092915050565b600082601f830112611c6b57600080fd5b8135611c7b848260208601611b9e565b91505092915050565b600081359050611c9381612ddb565b92915050565b600060208284031215611cab57600080fd5b6000611cb984828501611bdc565b91505092915050565b60008060408385031215611cd557600080fd5b6000611ce385828601611bdc565b9250506020611cf485828601611bdc565b9150509250929050565b600080600060608486031215611d1357600080fd5b6000611d2186828701611bdc565b9350506020611d3286828701611bdc565b9250506040611d4386828701611c84565b9150509250925092565b60008060008060808587031215611d6357600080fd5b6000611d7187828801611bdc565b9450506020611d8287828801611bdc565b9350506040611d9387828801611c84565b925050606085013567ffffffffffffffff811115611db057600080fd5b611dbc87828801611c30565b91505092959194509250565b60008060408385031215611ddb57600080fd5b6000611de985828601611bdc565b9250506020611dfa85828601611bf1565b9150509250929050565b60008060408385031215611e1757600080fd5b6000611e2585828601611bdc565b9250506020611e3685828601611c84565b9150509250929050565b600060208284031215611e5257600080fd5b6000611e6084828501611c06565b91505092915050565b600060208284031215611e7b57600080fd5b6000611e8984828501611c1b565b91505092915050565b60008060408385031215611ea557600080fd5b600083013567ffffffffffffffff811115611ebf57600080fd5b611ecb85828601611c5a565b925050602083013567ffffffffffffffff811115611ee857600080fd5b611ef485828601611c5a565b9150509250929050565b600060208284031215611f1057600080fd5b6000611f1e84828501611c84565b91505092915050565b611f3081612776565b82525050565b611f3f81612788565b82525050565b6000611f508261261e565b611f5a8185612634565b9350611f6a8185602086016127f9565b611f73816129c5565b840191505092915050565b6000611f8982612629565b611f938185612645565b9350611fa38185602086016127f9565b611fac816129c5565b840191505092915050565b6000611fc282612629565b611fcc8185612656565b9350611fdc8185602086016127f9565b80840191505092915050565b60008154611ff58161282c565b611fff8186612656565b9450600182166000811461201a576001811461202b5761205e565b60ff1983168652818601935061205e565b61203485612609565b60005b8381101561205657815481890152600182019150602081019050612037565b838801955050505b50505092915050565b6000612074600b83612656565b915061207f826129d6565b600b82019050919050565b6000612097603283612645565b91506120a2826129ff565b604082019050919050565b60006120ba602583612645565b91506120c582612a4e565b604082019050919050565b60006120dd601c83612645565b91506120e882612a9d565b602082019050919050565b6000612100603283612656565b915061210b82612ac6565b603282019050919050565b6000612123602483612645565b915061212e82612b15565b604082019050919050565b6000612146601983612645565b915061215182612b64565b602082019050919050565b6000612169602983612645565b915061217482612b8d565b604082019050919050565b600061218c600283612656565b915061219782612bdc565b600282019050919050565b60006121af603e83612645565b91506121ba82612c05565b604082019050919050565b60006121d2602083612645565b91506121dd82612c54565b602082019050919050565b60006121f5600a83612656565b915061220082612c7d565b600a82019050919050565b6000612218601883612645565b915061222382612ca6565b602082019050919050565b600061223b602183612645565b915061224682612ccf565b604082019050919050565b600061225e601d83612656565b915061226982612d1e565b601d82019050919050565b6000612281602e83612645565b915061228c82612d47565b604082019050919050565b6122a0816127e0565b82525050565b60006122b1826121e8565b91506122bd8286611fe8565b91506122c882612067565b91506122d48285611fb7565b91506122df826120f3565b91506122eb8284611fe8565b91506122f68261217f565b9150819050949350505050565b600061230e82612251565b915061231a8284611fb7565b915081905092915050565b600060208201905061233a6000830184611f27565b92915050565b60006080820190506123556000830187611f27565b6123626020830186611f27565b61236f6040830185612297565b81810360608301526123818184611f45565b905095945050505050565b60006020820190506123a16000830184611f36565b92915050565b600060208201905081810360008301526123c18184611f7e565b905092915050565b600060608201905081810360008301526123e38186611f7e565b90506123f26020830185612297565b6123ff6040830184611f27565b949350505050565b600060208201905081810360008301526124208161208a565b9050919050565b60006020820190508181036000830152612440816120ad565b9050919050565b60006020820190508181036000830152612460816120d0565b9050919050565b6000602082019050818103600083015261248081612116565b9050919050565b600060208201905081810360008301526124a081612139565b9050919050565b600060208201905081810360008301526124c08161215c565b9050919050565b600060208201905081810360008301526124e0816121a2565b9050919050565b60006020820190508181036000830152612500816121c5565b9050919050565b600060208201905081810360008301526125208161220b565b9050919050565b600060208201905081810360008301526125408161222e565b9050919050565b6000602082019050818103600083015261256081612274565b9050919050565b600060208201905061257c6000830184612297565b92915050565b600061258c61259d565b9050612598828261285e565b919050565b6000604051905090565b600067ffffffffffffffff8211156125c2576125c1612996565b5b6125cb826129c5565b9050602081019050919050565b600067ffffffffffffffff8211156125f3576125f2612996565b5b6125fc826129c5565b9050602081019050919050565b60008190508160005260206000209050919050565b600081519050919050565b600081519050919050565b600082825260208201905092915050565b600082825260208201905092915050565b600081905092915050565b600061266c826127e0565b9150612677836127e0565b9250827fffffffffffffffffffffffffffffffffffffffffffffffffffffffffffffffff038211156126ac576126ab612909565b5b828201905092915050565b60006126c2826127e0565b91506126cd836127e0565b9250826126dd576126dc612938565b5b828204905092915050565b60006126f3826127e0565b91506126fe836127e0565b9250817fffffffffffffffffffffffffffffffffffffffffffffffffffffffffffffffff048311821515161561273757612736612909565b5b828202905092915050565b600061274d826127e0565b9150612758836127e0565b92508282101561276b5761276a612909565b5b828203905092915050565b6000612781826127c0565b9050919050565b60008115159050919050565b60007fffffffff0000000000000000000000000000000000000000000000000000000082169050919050565b600073ffffffffffffffffffffffffffffffffffffffff82169050919050565b6000819050919050565b82818337600083830152505050565b60005b838110156128175780820151818401526020810190506127fc565b83811115612826576000848401525b50505050565b6000600282049050600182168061284457607f821691505b6020821081141561285857612857612967565b5b50919050565b612867826129c5565b810181811067ffffffffffffffff8211171561288657612885612996565b5b80604052505050565b600061289a826127e0565b91507fffffffffffffffffffffffffffffffffffffffffffffffffffffffffffffffff8214156128cd576128cc612909565b5b600182019050919050565b60006128e3826127e0565b91506128ee836127e0565b9250826128fe576128fd612938565b5b828206905092915050565b7f4e487b7100000000000000000000000000000000000000000000000000000000600052601160045260246000fd5b7f4e487b7100000000000000000000000000000000000000000000000000000000600052601260045260246000fd5b7f4e487b7100000000000000000000000000000000000000000000000000000000600052602260045260246000fd5b7f4e487b7100000000000000000000000000000000000000000000000000000000600052604160045260246000fd5b6000601f19601f8301169050919050565b7f202d2d204e465420233a20000000000000000000000000000000000000000000600082015250565b7f4552433732313a207472616e7366657220746f206e6f6e20455243373231526560008201527f63656976657220696d706c656d656e7465720000000000000000000000000000602082015250565b7f4552433732313a207472616e736665722066726f6d20696e636f72726563742060008201527f6f776e6572000000000000000000000000000000000000000000000000000000602082015250565b7f4552433732313a20746f6b656e20616c7265616479206d696e74656400000000600082015250565b7f222c20226465736372697074696f6e223a2022416e2065706963204e4654222c60008201527f2022696d616765223a2022697066733a2f2f0000000000000000000000000000602082015250565b7f4552433732313a207472616e7366657220746f20746865207a65726f2061646460008201527f7265737300000000000000000000000000000000000000000000000000000000602082015250565b7f4552433732313a20617070726f766520746f2063616c6c657200000000000000600082015250565b7f4552433732313a2061646472657373207a65726f206973206e6f74206120766160008201527f6c6964206f776e65720000000000000000000000000000000000000000000000602082015250565b7f227d000000000000000000000000000000000000000000000000000000000000600082015250565b7f4552433732313a20617070726f76652063616c6c6572206973206e6f7420746f60008201527f6b656e206f776e6572206e6f7220617070726f76656420666f7220616c6c0000602082015250565b7f4552433732313a206d696e7420746f20746865207a65726f2061646472657373600082015250565b7f7b226e616d65223a202200000000000000000000000000000000000000000000600082015250565b7f4552433732313a20696e76616c696420746f6b656e2049440000000000000000600082015250565b7f4552433732313a20617070726f76616c20746f2063757272656e74206f776e6560008201527f7200000000000000000000000000000000000000000000000000000000000000602082015250565b7f646174613a6170706c69636174696f6e2f6a736f6e3b6261736536342c000000600082015250565b7f4552433732313a2063616c6c6572206973206e6f7420746f6b656e206f776e6560008201527f72206e6f7220617070726f766564000000000000000000000000000000000000602082015250565b612d9f81612776565b8114612daa57600080fd5b50565b612db681612788565b8114612dc157600080fd5b50565b612dcd81612794565b8114612dd857600080fd5b50565b612de4816127e0565b8114612def57600080fd5b5056fe416e204e465420772f20494420257320686173206265656e206d696e74656420746f2025734142434445464748494a4b4c4d4e4f505152535455565758595a6162636465666768696a6b6c6d6e6f707172737475767778797a303132333435363738392b2fa2646970667358221220f80efdf9a4b40b02743dd0a0d71e2449dcf40a9b71d414b36b3065803708004864736f6c63430008040033",
  "linkReferences": {},
  "deployedLinkReferences": {}
}